{
  "_format": "hh-sol-artifact-1",
  "contractName": "TimeLockContacts",
  "sourceName": "contracts/TimeLockContacts.sol",
  "abi": [
    {
      "anonymous": false,
      "inputs": [
        {
          "indexed": true,
          "internalType": "uint256",
          "name": "lockId",
          "type": "uint256"
        },
        {
          "indexed": true,
          "internalType": "address",
          "name": "recipient",
          "type": "address"
        },
        {
          "indexed": false,
          "internalType": "uint256",
          "name": "amount",
          "type": "uint256"
        }
      ],
      "name": "CryptoClaimed",
      "type": "event"
    },
    {
      "anonymous": false,
      "inputs": [
        {
          "indexed": true,
          "internalType": "uint256",
          "name": "lockId",
          "type": "uint256"
        },
        {
          "indexed": true,
          "internalType": "address",
          "name": "owner",
          "type": "address"
        },
        {
          "indexed": true,
          "internalType": "address",
          "name": "recipient",
          "type": "address"
        },
        {
          "indexed": false,
          "internalType": "uint256",
          "name": "unlockTime",
          "type": "uint256"
        },
        {
          "indexed": false,
          "internalType": "string",
          "name": "ipfsHash",
          "type": "string"
        }
      ],
      "name": "TimeLockCreated",
      "type": "event"
    },
    {
      "anonymous": false,
      "inputs": [
        {
          "indexed": true,
          "internalType": "uint256",
          "name": "lockId",
          "type": "uint256"
        },
        {
          "indexed": true,
          "internalType": "address",
          "name": "unlockedBy",
          "type": "address"
        }
      ],
      "name": "TimeLockUnlocked",
      "type": "event"
    },
    {
      "inputs": [
        {
          "internalType": "uint256",
          "name": "_lockId",
          "type": "uint256"
        }
      ],
      "name": "canUnlock",
      "outputs": [
        {
          "internalType": "bool",
          "name": "",
          "type": "bool"
        }
      ],
      "stateMutability": "view",
      "type": "function"
    },
    {
      "inputs": [
        {
          "internalType": "uint256",
          "name": "_lockId",
          "type": "uint256"
        }
      ],
      "name": "claimCrypto",
      "outputs": [],
      "stateMutability": "nonpayable",
      "type": "function"
    },
    {
      "inputs": [
        {
          "internalType": "address",
          "name": "_recipient",
          "type": "address"
        },
        {
          "internalType": "string",
          "name": "_ipfsHash",
          "type": "string"
        },
        {
          "internalType": "string",
          "name": "_encryptionKeyHash",
          "type": "string"
        },
        {
          "internalType": "uint256",
          "name": "_unlockTime",
          "type": "uint256"
        },
        {
          "internalType": "string",
          "name": "_lockType",
          "type": "string"
        },
        {
          "internalType": "string",
          "name": "_metadata",
          "type": "string"
        }
      ],
      "name": "createTimeLock",
      "outputs": [
        {
          "internalType": "uint256",
          "name": "",
          "type": "uint256"
        }
      ],
      "stateMutability": "payable",
      "type": "function"
    },
    {
      "inputs": [
        {
          "internalType": "address",
          "name": "_user",
          "type": "address"
        }
      ],
      "name": "getReceivedLocks",
      "outputs": [
        {
          "internalType": "uint256[]",
          "name": "",
          "type": "uint256[]"
        }
      ],
      "stateMutability": "view",
      "type": "function"
    },
    {
      "inputs": [
        {
          "internalType": "uint256",
          "name": "_lockId",
          "type": "uint256"
        }
      ],
      "name": "getTimeLock",
      "outputs": [
        {
          "components": [
            {
              "internalType": "uint256",
              "name": "id",
              "type": "uint256"
            },
            {
              "internalType": "address",
              "name": "owner",
              "type": "address"
            },
            {
              "internalType": "address",
              "name": "recipient",
              "type": "address"
            },
            {
              "internalType": "string",
              "name": "ipfsHash",
              "type": "string"
            },
            {
              "internalType": "string",
              "name": "encryptionKeyHash",
              "type": "string"
            },
            {
              "internalType": "uint256",
              "name": "unlockTime",
              "type": "uint256"
            },
            {
              "internalType": "uint256",
              "name": "cryptoAmount",
              "type": "uint256"
            },
            {
              "internalType": "bool",
              "name": "isUnlocked",
              "type": "bool"
            },
            {
              "internalType": "bool",
              "name": "isClaimed",
              "type": "bool"
            },
            {
              "internalType": "string",
              "name": "lockType",
              "type": "string"
            },
            {
              "internalType": "string",
              "name": "metadata",
              "type": "string"
            }
          ],
          "internalType": "struct TimeLockContacts.TimeLock",
          "name": "",
          "type": "tuple"
        }
      ],
      "stateMutability": "view",
      "type": "function"
    },
    {
      "inputs": [
        {
          "internalType": "uint256",
          "name": "_lockId",
          "type": "uint256"
        }
      ],
      "name": "getTimeRemaining",
      "outputs": [
        {
          "internalType": "uint256",
          "name": "",
          "type": "uint256"
        }
      ],
      "stateMutability": "view",
      "type": "function"
    },
    {
      "inputs": [
        {
          "internalType": "address",
          "name": "_user",
          "type": "address"
        }
      ],
      "name": "getUserLocks",
      "outputs": [
        {
          "internalType": "uint256[]",
          "name": "",
          "type": "uint256[]"
        }
      ],
      "stateMutability": "view",
      "type": "function"
    },
    {
      "inputs": [],
      "name": "lockCounter",
      "outputs": [
        {
          "internalType": "uint256",
          "name": "",
          "type": "uint256"
        }
      ],
      "stateMutability": "view",
      "type": "function"
    },
    {
      "inputs": [
        {
          "internalType": "address",
          "name": "",
          "type": "address"
        },
        {
          "internalType": "uint256",
          "name": "",
          "type": "uint256"
        }
      ],
      "name": "receivedLocks",
      "outputs": [
        {
          "internalType": "uint256",
          "name": "",
          "type": "uint256"
        }
      ],
      "stateMutability": "view",
      "type": "function"
    },
    {
      "inputs": [
        {
          "internalType": "uint256",
          "name": "",
          "type": "uint256"
        }
      ],
      "name": "timeLocks",
      "outputs": [
        {
          "internalType": "uint256",
          "name": "id",
          "type": "uint256"
        },
        {
          "internalType": "address",
          "name": "owner",
          "type": "address"
        },
        {
          "internalType": "address",
          "name": "recipient",
          "type": "address"
        },
        {
          "internalType": "string",
          "name": "ipfsHash",
          "type": "string"
        },
        {
          "internalType": "string",
          "name": "encryptionKeyHash",
          "type": "string"
        },
        {
          "internalType": "uint256",
          "name": "unlockTime",
          "type": "uint256"
        },
        {
          "internalType": "uint256",
          "name": "cryptoAmount",
          "type": "uint256"
        },
        {
          "internalType": "bool",
          "name": "isUnlocked",
          "type": "bool"
        },
        {
          "internalType": "bool",
          "name": "isClaimed",
          "type": "bool"
        },
        {
          "internalType": "string",
          "name": "lockType",
          "type": "string"
        },
        {
          "internalType": "string",
          "name": "metadata",
          "type": "string"
        }
      ],
      "stateMutability": "view",
      "type": "function"
    },
    {
      "inputs": [
        {
          "internalType": "uint256",
          "name": "_lockId",
          "type": "uint256"
        }
      ],
      "name": "unlock",
      "outputs": [],
      "stateMutability": "nonpayable",
      "type": "function"
    },
    {
      "inputs": [
        {
          "internalType": "address",
          "name": "",
          "type": "address"
        },
        {
          "internalType": "uint256",
          "name": "",
          "type": "uint256"
        }
      ],
      "name": "userLocks",
      "outputs": [
        {
          "internalType": "uint256",
          "name": "",
          "type": "uint256"
        }
      ],
      "stateMutability": "view",
      "type": "function"
    }
  ],
  "bytecode": "0x608060405234801561001057600080fd5b50611a97806100206000396000f3fe6080604052600436106100a75760003560e01c80638c15b118116100645780638c15b118146101815780638cd42991146101ae5780638db564c2146101ce5780638f2900d5146101e4578063aa33fedb1461021b578063d94a7af51461023b57600080fd5b80630d472fe2146100ac57806323a35de9146100df5780634aca59f11461010c5780636198e3391461011f5780636250d66f1461014157806370f4f2ec14610161575b600080fd5b3480156100b857600080fd5b506100cc6100c73660046114c2565b61026b565b6040519081526020015b60405180910390f35b3480156100eb57600080fd5b506100ff6100fa3660046114ec565b61029c565b6040516100d69190611507565b6100cc61011a3660046115ee565b610308565b34801561012b57600080fd5b5061013f61013a3660046116b4565b6104f1565b005b34801561014d57600080fd5b5061013f61015c3660046116b4565b610656565b34801561016d57600080fd5b506100ff61017c3660046114ec565b610879565b34801561018d57600080fd5b506101a161019c3660046116b4565b6108e3565b6040516100d69190611713565b3480156101ba57600080fd5b506100cc6101c93660046116b4565b610c28565b3480156101da57600080fd5b506100cc60005481565b3480156101f057600080fd5b506102046101ff3660046116b4565b610f1c565b6040516100d69b9a9998979695949392919061180f565b34801561022757600080fd5b506100cc6102363660046114c2565b6111a7565b34801561024757600080fd5b5061025b6102563660046116b4565b6111c3565b60405190151581526020016100d6565b6003602052816000526040600020818154811061028757600080fd5b90600052602060002001600091509150505481565b6001600160a01b0381166000908152600260209081526040918290208054835181840281018401909452808452606093928301828280156102fc57602002820191906000526020600020905b8154815260200190600101908083116102e8575b50505050509050919050565b600042841161035e5760405162461bcd60e51b815260206004820152601d60248201527f556e6c6f636b2074696d65206d75737420626520696e2066757475726500000060448201526064015b60405180910390fd5b6001600160a01b0387166103a85760405162461bcd60e51b8152602060048201526011602482015270125b9d985b1a59081c9958da5c1a595b9d607a1b6044820152606401610355565b6000805490806103b7836118c5565b9091555050600080548082526001602081905260409092209081559081018054336001600160a01b0319918216179091556002820180549091166001600160a01b038a161790556003810161040c8882611967565b506004810161041b8782611967565b506005810185905534600682015560078101805461ffff19169055600881016104448582611967565b50600981016104538482611967565b50336000818152600260209081526040808320835481546001818101845592865284862001556001600160a01b038d16808552600384528285208554815493840182559086529385209091019290925591549151909291907f0fe5cab3b78732430e05ca0759bb2ac17acd59a58fab412fee792b07c4847ca4906104da908a908d90611a27565b60405180910390a450506000549695505050505050565b6000818152600160208190526040909120015481906001600160a01b031633148061053557506000818152600160205260409020600201546001600160a01b031633145b6105725760405162461bcd60e51b815260206004820152600e60248201526d139bdd08185d5d1a1bdc9a5e995960921b6044820152606401610355565b6000828152600160205260409020600781015460ff16156105c85760405162461bcd60e51b815260206004820152601060248201526f105b1c9958591e481d5b9b1bd8dad95960821b6044820152606401610355565b80600501544210156106155760405162461bcd60e51b81526020600482015260166024820152754e6f74207965742074696d6520746f20756e6c6f636b60501b6044820152606401610355565b60078101805460ff19166001179055604051339084907fbb8c0ed88d1e5a71d8d0b46d5c0ffa12acad30254d1c408a9276010fdf0e695490600090a3505050565b600081815260016020526040902060028101546001600160a01b031633146106c05760405162461bcd60e51b815260206004820152601860248201527f4f6e6c7920726563697069656e742063616e20636c61696d00000000000000006044820152606401610355565b600781015460ff166107075760405162461bcd60e51b815260206004820152601060248201526f139bdd081e595d081d5b9b1bd8dad95960821b6044820152606401610355565b6007810154610100900460ff16156107535760405162461bcd60e51b815260206004820152600f60248201526e105b1c9958591e4818db185a5b5959608a1b6044820152606401610355565b600081600601541161079c5760405162461bcd60e51b81526020600482015260126024820152714e6f2063727970746f20746f20636c61696d60701b6044820152606401610355565b60078101805461ff0019166101001790556006810154604051600090339083908381818185875af1925050503d80600081146107f4576040519150601f19603f3d011682016040523d82523d6000602084013e6107f9565b606091505b505090508061083c5760405162461bcd60e51b815260206004820152600f60248201526e151c985b9cd9995c8819985a5b1959608a1b6044820152606401610355565b604051828152339085907f69a19ab85d86a233ee05fae17886d84d55026a1018aed63093d1baf8ffae51389060200160405180910390a350505050565b6001600160a01b0381166000908152600360209081526040918290208054835181840281018401909452808452606093928301828280156102fc57602002820191906000526020600020908154815260200190600101908083116102e85750505050509050919050565b6109566040518061016001604052806000815260200160006001600160a01b0316815260200160006001600160a01b031681526020016060815260200160608152602001600081526020016000815260200160001515815260200160001515815260200160608152602001606081525090565b60008281526001602081815260409283902083516101608101855281548152928101546001600160a01b03908116928401929092526002810154909116928201929092526003820180549192916060840191906109b2906118de565b80601f01602080910402602001604051908101604052809291908181526020018280546109de906118de565b8015610a2b5780601f10610a0057610100808354040283529160200191610a2b565b820191906000526020600020905b815481529060010190602001808311610a0e57829003601f168201915b50505050508152602001600482018054610a44906118de565b80601f0160208091040260200160405190810160405280929190818152602001828054610a70906118de565b8015610abd5780601f10610a9257610100808354040283529160200191610abd565b820191906000526020600020905b815481529060010190602001808311610aa057829003601f168201915b50505091835250506005820154602082015260068201546040820152600782015460ff80821615156060840152610100909104161515608082015260088201805460a090920191610b0d906118de565b80601f0160208091040260200160405190810160405280929190818152602001828054610b39906118de565b8015610b865780601f10610b5b57610100808354040283529160200191610b86565b820191906000526020600020905b815481529060010190602001808311610b6957829003601f168201915b50505050508152602001600982018054610b9f906118de565b80601f0160208091040260200160405190810160405280929190818152602001828054610bcb906118de565b8015610c185780601f10610bed57610100808354040283529160200191610c18565b820191906000526020600020905b815481529060010190602001808311610bfb57829003601f168201915b5050505050815250509050919050565b600081815260016020818152604080842081516101608101835281548152938101546001600160a01b0390811693850193909352600281015490921690830152600381018054849392916060840191610c80906118de565b80601f0160208091040260200160405190810160405280929190818152602001828054610cac906118de565b8015610cf95780601f10610cce57610100808354040283529160200191610cf9565b820191906000526020600020905b815481529060010190602001808311610cdc57829003601f168201915b50505050508152602001600482018054610d12906118de565b80601f0160208091040260200160405190810160405280929190818152602001828054610d3e906118de565b8015610d8b5780601f10610d6057610100808354040283529160200191610d8b565b820191906000526020600020905b815481529060010190602001808311610d6e57829003601f168201915b50505091835250506005820154602082015260068201546040820152600782015460ff80821615156060840152610100909104161515608082015260088201805460a090920191610ddb906118de565b80601f0160208091040260200160405190810160405280929190818152602001828054610e07906118de565b8015610e545780601f10610e2957610100808354040283529160200191610e54565b820191906000526020600020905b815481529060010190602001808311610e3757829003601f168201915b50505050508152602001600982018054610e6d906118de565b80601f0160208091040260200160405190810160405280929190818152602001828054610e99906118de565b8015610ee65780601f10610ebb57610100808354040283529160200191610ee6565b820191906000526020600020905b815481529060010190602001808311610ec957829003601f168201915b50505050508152505090508060a001514210610f055750600092915050565b428160a00151610f159190611a48565b9392505050565b600160208190526000918252604090912080549181015460028201546003830180546001600160a01b03938416949290931692610f58906118de565b80601f0160208091040260200160405190810160405280929190818152602001828054610f84906118de565b8015610fd15780601f10610fa657610100808354040283529160200191610fd1565b820191906000526020600020905b815481529060010190602001808311610fb457829003601f168201915b505050505090806004018054610fe6906118de565b80601f0160208091040260200160405190810160405280929190818152602001828054611012906118de565b801561105f5780601f106110345761010080835404028352916020019161105f565b820191906000526020600020905b81548152906001019060200180831161104257829003601f168201915b505050506005830154600684015460078501546008860180549596939592945060ff808316946101009093041692611096906118de565b80601f01602080910402602001604051908101604052809291908181526020018280546110c2906118de565b801561110f5780601f106110e45761010080835404028352916020019161110f565b820191906000526020600020905b8154815290600101906020018083116110f257829003601f168201915b505050505090806009018054611124906118de565b80601f0160208091040260200160405190810160405280929190818152602001828054611150906118de565b801561119d5780601f106111725761010080835404028352916020019161119d565b820191906000526020600020905b81548152906001019060200180831161118057829003601f168201915b505050505090508b565b6002602052816000526040600020818154811061028757600080fd5b600081815260016020818152604080842081516101608101835281548152938101546001600160a01b039081169385019390935260028101549092169083015260038101805484939291606084019161121b906118de565b80601f0160208091040260200160405190810160405280929190818152602001828054611247906118de565b80156112945780601f1061126957610100808354040283529160200191611294565b820191906000526020600020905b81548152906001019060200180831161127757829003601f168201915b505050505081526020016004820180546112ad906118de565b80601f01602080910402602001604051908101604052809291908181526020018280546112d9906118de565b80156113265780601f106112fb57610100808354040283529160200191611326565b820191906000526020600020905b81548152906001019060200180831161130957829003601f168201915b50505091835250506005820154602082015260068201546040820152600782015460ff80821615156060840152610100909104161515608082015260088201805460a090920191611376906118de565b80601f01602080910402602001604051908101604052809291908181526020018280546113a2906118de565b80156113ef5780601f106113c4576101008083540402835291602001916113ef565b820191906000526020600020905b8154815290600101906020018083116113d257829003601f168201915b50505050508152602001600982018054611408906118de565b80601f0160208091040260200160405190810160405280929190818152602001828054611434906118de565b80156114815780601f1061145657610100808354040283529160200191611481565b820191906000526020600020905b81548152906001019060200180831161146457829003601f168201915b50505050508152505090508060a001514210158015610f15575060e001511592915050565b80356001600160a01b03811681146114bd57600080fd5b919050565b600080604083850312156114d557600080fd5b6114de836114a6565b946020939093013593505050565b6000602082840312156114fe57600080fd5b610f15826114a6565b6020808252825182820181905260009190848201906040850190845b8181101561153f57835183529284019291840191600101611523565b50909695505050505050565b634e487b7160e01b600052604160045260246000fd5b600082601f83011261157257600080fd5b813567ffffffffffffffff8082111561158d5761158d61154b565b604051601f8301601f19908116603f011681019082821181831017156115b5576115b561154b565b816040528381528660208588010111156115ce57600080fd5b836020870160208301376000602085830101528094505050505092915050565b60008060008060008060c0878903121561160757600080fd5b611610876114a6565b9550602087013567ffffffffffffffff8082111561162d57600080fd5b6116398a838b01611561565b9650604089013591508082111561164f57600080fd5b61165b8a838b01611561565b955060608901359450608089013591508082111561167857600080fd5b6116848a838b01611561565b935060a089013591508082111561169a57600080fd5b506116a789828a01611561565b9150509295509295509295565b6000602082840312156116c657600080fd5b5035919050565b6000815180845260005b818110156116f3576020818501810151868301820152016116d7565b506000602082860101526020601f19601f83011685010191505092915050565b60208152815160208201526000602083015161173a60408401826001600160a01b03169052565b5060408301516001600160a01b038116606084015250606083015161016080608085015261176c6101808501836116cd565b91506080850151601f19808685030160a087015261178a84836116cd565b935060a087015160c087015260c087015160e087015260e087015191506101006117b78188018415159052565b87015191506101206117cc8782018415159052565b808801519250506101408187860301818801526117e985846116cd565b90880151878203909201848801529350905061180583826116cd565b9695505050505050565b8b81526001600160a01b038b811660208301528a166040820152610160606082018190526000906118428382018c6116cd565b90508281036080840152611856818b6116cd565b90508860a08401528760c084015286151560e084015285151561010084015282810361012084015261188881866116cd565b905082810361014084015261189d81856116cd565b9e9d5050505050505050505050505050565b634e487b7160e01b600052601160045260246000fd5b6000600182016118d7576118d76118af565b5060010190565b600181811c908216806118f257607f821691505b60208210810361191257634e487b7160e01b600052602260045260246000fd5b50919050565b601f82111561196257600081815260208120601f850160051c8101602086101561193f5750805b601f850160051c820191505b8181101561195e5782815560010161194b565b5050505b505050565b815167ffffffffffffffff8111156119815761198161154b565b6119958161198f84546118de565b84611918565b602080601f8311600181146119ca57600084156119b25750858301515b600019600386901b1c1916600185901b17855561195e565b600085815260208120601f198616915b828110156119f9578886015182559484019460019091019084016119da565b5085821015611a175787850151600019600388901b60f8161c191681555b5050505050600190811b01905550565b828152604060208201526000611a4060408301846116cd565b949350505050565b81810381811115611a5b57611a5b6118af565b9291505056fea2646970667358221220815a7e3f1f39061259928ebfe93cf35c1b9552678063d444ba2ccd9351516bb764736f6c63430008130033",
  "linkReferences": {},
  "deployedLinkReferences": {}
}